S00E0000752D626F6F742E73726563C0
S31501000040160000EA14F09FE514F09FE514F09FE511
S3150100005014F09FE514F09FE514F09FE514F09FE579
S315010000600002000160020001C0020001200300013C
S3150100007080030001E00300012004000178563412D8
S3150100008040000001FC390300FC390300AC7E070087
S315010000904CA60300DEC0AD0BDEC0AD0BDEC0AD0B62
S315010000A02A0500EB00000FE11F00C0E3D30080E347
S315010000B000F029E1100F11EE020AC0E3100F01EE64
S315010000C098039FE5100F0CEE360000EB460000EB9F
S315010000D0D30500EB0040A0E10150A0E10260A0E1E0
S315010000E0A8004FE2060050E10090A0032200000A9A
S315010000F00610A0E174301FE5032080E00006B0E899
S315010001000006A1E8020050E1FBFFFF3A94001FE55B
S31501000110009046E06CA09FE500A08AE05C209FE588
S31501000120002082E058309FE5003083E0000092E530
S31501000130090080E0041092E5FF7001E2170057E321
S315010001400700000A020057E30000000A060000EA61
S315010001502112A0E101108AE0041091E5091081E065
S31501000160010000EA001090E5091081E0001080E529
S31501000170082082E2030052E1EBFFFF3A1EFF2FE166
S31501000180FC3903003CA503003CA50300150F07EE4F
S315010001909A0F07EE950F07EEC0029FE5100F0CEEC2
S315010001A01EFF2FE11EFF2FE10000A0E3170F08EE4F
S315010001B0150F07EED50F07EE9A0F07EE950F07EE0F
S315010001C0100F11EE020AC0E30700C0E3020080E34C
S315010001D0020B80E3010A80E3100F01EE300F1FEEE0
S315010001E0020680E3300F0FEE0EF0A0E12C0100EACB
S315010001F000F020E300F020E300F020E300F020E32C
S315010002006CD11FE500E08DE500E04FE104E08DE5EE
S3150100021013D0A0E30DF069E10FE0A0E10EF0B0E12B
S3150100022048D04DE2FF1F8DE894211FE50C0092E8AE
S3150100023048008DE234508DE20E10A0E10F0085E8F2
S315010002400D00A0E1CC0600FA00F020E300F020E367
S3150100025000F020E300F020E300F020E300F020E3CB
S3150100026004D04DE200008DE5D4011FE500E080E5F4
S3150100027000004FE104E080E500009DE504D08DE239
S3150100028048D04DE2FF1F8DE8F4211FE50C0092E8EE
S3150100029048008DE234508DE20E10A0E10F0085E892
S315010002A00D00A0E1BA0600FA00F020E300F020E319
S315010002B000F020E300F020E300F020E300F020E36B
S315010002C02CD21FE500E08DE500E04FE104E08DE56D
S315010002D013D0A0E30DF069E10FE0A0E10EF0B0E16B
S315010002E048D04DE2FF1F8DE854221FE50C0092E82D
S315010002F048008DE234508DE20E10A0E10F0085E832
S315010003000D00A0E1A80600FA00F020E300F020E3CA
S3150100031000F020E300F020E300F020E300F020E30A
S315010003208CD21FE500E08DE500E04FE104E08DE5AC
S3150100033013D0A0E30DF069E10FE0A0E10EF0B0E10A
S3150100034048D04DE2FF1F8DE8B4221FE50C0092E86C
S3150100035048008DE234508DE20E10A0E10F0085E8D1
S315010003600D00A0E1960600FA00F020E300F020E37C
S3150100037000F020E300F020E300F020E300F020E3AA
S31501000380ECD21FE500E08DE500E04FE104E08DE5EC
S3150100039013D0A0E30DF069E10FE0A0E10EF0B0E1AA
S315010003A048D04DE2FF1F8DE814231FE50C0092E8AB
S315010003B048008DE234508DE20E10A0E10F0085E871
S315010003C00D00A0E1840600FA00F020E300F020E32E
S315010003D000F020E300F020E300F020E300F020E34A
S315010003E054D31FE548D04DE2FF1F8DE83C508DE206
S315010003F0006045E900E085E500604FE1046085E5C0
S31501000400080085E50D00A0E1820200FAFF7FDDE824
S315010004100000A0E13CE09DE548D08DE204F05EE2FB
S3150100042090D31FE548D04DE2FF1F8DE83C508DE289
S31501000430006045E900E085E500604FE1046085E57F
S31501000440080085E50D00A0E1690600FAFF7FDDE8F9
S315010004500000A0E13CE09DE548D08DE204F05EE2BB
S31501000460400000012DE9F04630EE306F00210D46C7
S315010004704C00631826FA03F303F00703023B022B31
S3150100048047D840EE104F30EE107FC7F3C90307F08F
S31501000490070E03F1010A0EF1040EC7F34E374FF0B2
S315010004A0FF3CD1465FEA59090CF1010201D094469D
S315010004B0F8E713EA0A0F18BF0CF102020128C2F18C
S315010004C0200211D103FA02FABC464AEA040A0CFADE
S315010004D00EF949EA0A0907EE569F1CF1FF3CF6D2CE
S315010004E013F1FF33EED212E0022812D103FA02FA17
S315010004F0BC464AEA040A0CFA0EF949EA0A0907EE69
S315010005005E9F1CF1FF3CF6D213F1FF33EED207EEEC
S315010005109A5F01310729ABD1BDE8F086002307EECA
S31501000520153F07EED53F07EE9A3F07EE953F704719
S3150100053070477047704708B50220FFF793FFBDE883
S315010005400840FFF7F7BF704708B50120FFF78AFF9C
S31501000550BDE80840FFF7F7BF08B5FFF7E9FFFFF76A
S31501000560F3FF002308EE173F08EE163F08EE153F8E
S3150100057007EE9A3F07EE953F08BD704730EE103FF4
S3150100058003F00703012204339A4053420340994280
S3150100059003D907EE3E3F1344F9E7002307EE9A3FDE
S315010005A0FFF7EBBF08B5FFF7E9FF002308EE173F9A
S315010005B008EE163F08EE153F07EE9A3F07EE953F08
S315010005C008BD0144FFF7DABF70472DE9F042064640
S315010005D00F4630EE105F05F007052B1D01259D40E6
S315010005E005F1FF3910EA090F09D0024612491348ED
S315010005F0741E09F0BFF82C446B421C4000E004460F
S3150100060017EA090F07D03A460B490D4809F0B2F827
S315010006106B423B4000E03B469C4203D207EE364F1D
S315010006202C44F9E7002307EE9A3F39463046BDE8E8
S31501000630F042FFF7C9BF00BF00590201205A02016B
S31501000640535A0201704708B501F019FB01F038FC55
S31501000650FFF764FF01F07FFCFFF76BFFFFF774FF05
S31501000660FFF7F0FF002008BD0138FDD1704710B536
S31501000670012404FA02F20468013A8B408A4024EA12
S3150100068002021343036010BD30B50024013415681E
S3150100069005408D4203D09C42F8D1002030BD012097
S315010006A030BD00000CD09FE507D0CDE300502DE909
S315010006B0010000FA0090BDE880FEFFFF054A1368BD
S315010006C06FEA13336FEA03331360034B01221A6097
S315010006D0704700BF54C0FEFF00FCFEFF054B4FF004
S315010006E0FF321A605A609A6842F0030200209A604B
S315010006F0704700BF0000D0FF46F2A81358430B4BCA
S3150100070010B5A0FB03018B0909494A68002B0BDDD3
S315010007104868824235BFC0F101049B1A12191B18A1
S3150100072038BF9B180246F1E710BD00BFD34D6210DA
S315010007300000D0FF0D4B5A680D4BD208A2FB0323D4
S31501000740D8F83020D8F83000190A9142D8F820207C
S31501000750024484BF02F5273202F21632521AC8F851
S315010007602020C8F83010D8F8200070470000D0FFCC
S3150100077089B5F81410B50446FFF7DCFF001B10BD60
S31501000780064B5A68064BD208A2FB032300221B0A1A
S31501000790C8F83030C8F82020704700BF0000D0FFED
S315010007A089B5F8140A4B5968D8F83020D8F83000C2
S315010007B08A42D8F82020024438BF02F1FF32521A89
S315010007C0C8F82020C8F83010D8F82000704700BFBC
S315010007D00000D0FF10B50446FFF7E4FF001B10BD73
S315010007E0034A5268C8F830200022C8F82020704712
S315010007F00000D0FF08B5FFF79DFF002108BD4FF4AB
S315010008007A707047044B5A6942F040025A615A693C
S3150100081022F040025A6170470050D0FF024B5869DE
S31501000820C0F38010704700BF0050D0FF024A5368E2
S3150100083043F002035360FEE70050D0FF014B002254
S315010008405A6170470050D0FF08B500F073F900B93E
S31501000850FEE7034B0022DA61024B19221A6008BD3A
S315010008600050D0FF000080FF014B00221A61704743
S315010008700050D0FF024A536923F4807353617047D5
S315010008800050D0FF024A536923F040035361704779
S315010008900050D0FF024B4FF0FF325A61704700BF44
S315010008A00050D0FF024B4FF0FF32DA61704700BFB4
S315010008B00050D0FF024B6FF040025A61704700BFF3
S315010008C00050D0FF014A024B5A617047BFFFFFDF5C
S315010008D00050D0FF044B5A6910B142F0010201E009
S315010008E022F001025A6170470050D0FF044B5A6949
S315010008F010B142F0020201E022F002025A61704791
S315010009000050D0FF064B1A6842F010021A601A68AE
S3150100091010B142F0010201E022F001021A607047B3
S315010009203C50C2FF1B4B10B51C6862070CD51969F8
S31501000930194808F01FFF194B1A68194B194819680D
S315010009401144196007F092F814F0080416D01648FD
S3150100095008F0FCFE124B1548196808F00BFF144B02
S315010009601968144808F006FF134B1968134808F074
S3150100097001FF134B1968134808F0FCFE124A13686D
S3150100098043F01003136024B10020FFF7BBFF01F011
S3150100099025F810BD3850C2FF855A02014050C2FFEA
S315010009A03C3A0301A35A0201B15A0201D05A02018B
S315010009B04850C2FFE05A02014C50C2FFF05A0201F0
S315010009C05050C2FF025B02013C50C2FF0F4B1B6835
S315010009D00F4A03F01F01106818B1202828BF0F2005
S315010009E000E00F20C3F382220A4B1B68282B03D099
S315010009F0182B08BF102300E020230A44DB0810440B
S31501000A00012202FA00F05843704700BF2C50C2FF82
S31501000A109080D0FF3050C2FF10B5FFF7D7FF0146D7
S31501000A20002044460DF008FCA063002010BD10B55F
S31501000A308CB000240294FFF7C9FF40F6C4130A9351
S31501000A40154B00940B930390144808F07FFEFFF7B3
S31501000A5097FE2046FFF78EFE0446684611F0F4F82D
S31501000A6008B10F4804E0684610F0B9FF20B10D48FF
S31501000A7008F06CFE00F0B2FF684611F0A9F808B163
S31501000A800948F5E72046FFF775FE0146074808F0D5
S31501000A9071FE0CB010BD00BF403A0301135B0201A9
S31501000AA0325B02014C5B0201665B0201815B020162
S31501000AB0024B1868C0F38000704700BF506870FF92
S31501000AC0024B186800F00700704700BF006070FF16
S31501000AD004494B688001C2B223F0C000104348604C
S31501000AE0704700BF006070FF094BDA680AB1012246
S31501000AF0DA604FF080729860D96819B1012200203E
S31501000B00DA607047013AF7D14FF0FF30704700BF06
S31501000B10006070FF08B5FFF7CBFF08B9002008BDDC
S31501000B20FFF7C6FF0028F9D0FFF7CAFF031F584297
S31501000B30584108BD4FF0807208B5FFF7B9FF18B9E3
S31501000B40013AFAD1104608BDFFF7B2FF0028F7D0E7
S31501000B50012008BD10B52D4C20686368C0F3C400A0
S31501000B60020700F00B004CBF43F4007323F400733B
S31501000B700828636001D100200BE0092801D1022079
S31501000B8007E00A2801D1032003E00028F3D0012859
S31501000B9002D1FFF79DFF01E00228F0D063684FF014
S31501000BA0807223F002036360636843F001036360AC
S31501000BB0636843F004036360FFF782FF012801D0F5
S31501000BC0013AF9D1FFF77CFF012819D163684FF08B
S31501000BD0807223F004036360FFF772FF022801D0DD
S31501000BE0013AF9D1FFF76CFF02280CD1084B40F608
S31501000BF0FF7200201A60636843F48073636010BD5E
S31501000C004FF0FF3010BD6FF0010010BD006070FFA6
S31501000C104C6870FF0A46014922F0CABB0000B9FFC1
S31501000C200B494FF080720B6813F0030306D0032BB8
S31501000C3007D0013AF7D16FF0030070476FF0020059
S31501000C407047044A0020536823F480735360704749
S31501000C50506870FF006070FF08B50420FFF744FF7D
S31501000C60024670B94FF08071FFF72AFF03280AD0B8
S31501000C70FFF726FF042806D00139F5D16FF00502EA
S31501000C8001E06FF00402104608BD08B54FF4A0401C
S31501000C90FFF72AFF024650B94FF08071FFF710FFA8
S31501000CA0042807D00139F9D16FF0070207E06FF088
S31501000CB0060204E003494B6823F001034B6010462A
S31501000CC008BD00BF006070FF38B504460D460F4AE7
S31501000CD000231360A2F56222A2F6A8721360FFF741
S31501000CE0E1FD0B4B01221A60FFF734FF68B9294673
S31501000CF02046FFF78FFFFFF793FF30B9FFF7ACFFF1
S31501000D0018B9BDE83840FFF7C0BF38BD2880D0FF0D
S31501000D10000080FF084A4FF0FF331360043213606E
S31501000D200432136004321360043213600432136018
S31501000D30043213605360704780D1FEFF084A4FF0BA
S31501000D40FF331360043213600432136004321360FC
S31501000D500432136004321360043213605360704727
S31501000D6080D2FEFF4309012100F01F009B0001FA1A
S31501000D7000F0A3F59733A3F580731A681043186042
S31501000D8070471F2810B511D900F0FC0300F00300CD
S31501000D90A3F59433FF24C0001A68844001FA00F0D9
S31501000DA022EA04021A601A681043186010BD03098A
S31501000DB000F00F0010B59B00A3F592334000032409
S31501000DC001291A6804FA00F422EA04021A6005D11C
S31501000DD01A68022101FA00F01043186010BD430998
S31501000DE0012100F01F009B0001FA00F0A3F59733E3
S31501000DF01A681043186070474309012100F01F006B
S31501000E009B0001FA00F0A3F59633A3F5C0731A68A7
S31501000E1010431860704700BF38B5084DAC69D32C34
S31501000E200AD8074B03EBC40253F83430506898478D
S31501000E30E0B2FFF7E1FF2C6138BD00BF00C1FEFF44
S31501000E403009030110B50A4C236823F0010323601E
S31501000E50FFF760FFFFF772FF064A08235360236816
S31501000E6043F00103236001230020136010BD00BF7E
S31501000E7000D0FEFF00C1FEFF38B50446084D45F817
S31501000E80301005EBC00519466A60FFF790FF012196
S31501000E902046FFF776FF2046FFF764FF002038BDA6
S31501000EA030090301FFF79BBF40001F22C0F3007307
S31501000EB0013A83EAD0734FEA430343EA4000F5D18E
S31501000EC0C0F3007383EAD073184370472DE9F746E0
S31501000ED081460E4615461F461C464FF0000ACA4576
S31501000EE017DA2046FFF7E0FFA842014602D9294654
S31501000EF022F0D8F80C464A4201F0030302F003023D
S31501000F000AF1010A58BF5342CB1A995117F050FF03
S31501000F10E5E700244C4521DA3846FFF7C5FF85424F
S31501000F20034603D2294622F0BDF80B46594203F087
S31501000F30030201F003011F4658BF4A42991A8A1952
S31501000F408959994206D000912146064808F012FCBB
S31501000F50002004E017F02CFF0134DBE7012003B089
S31501000F60BDE8F086B15B0201012870B50D46164653
S31501000F7005D00C4B0C4C022808BF1C4600E00B4C5C
S31501000F800B4808F0E3FB20460A4B32462946FFF799
S31501000F909DFF044608B1084800E0084808F0D6FB62
S31501000FA0204670BD00CA9A3B40420F0080969800C9
S31501000FB0F85B0201EFBEADDE205C020109D302013E
S31501000FC09A4B2DE9F04E044686B00D461A6822F476
S31501000FD080621A60964A4FF43D7111600193029244
S31501000FE005B99D63019A0023DFF888B2DFF888A26C
S31501000FF013608DB90B23CBF80030DAF80030D9072E
S31501001000FBD48C4F8C4B3B608C4EDFF87092336077
S3150100101055B9C9F8003007E00923CBF80030DAF8F2
S315010010200030DA07FBD4ECE7854A15231360854BBC
S315010010300021196039683168D9F8001021683960D2
S31501001040E16A31600392049315B9636DC9F8003002
S31501001050FFF796FB0020FFF78DFB616803467A4A8E
S315010010601160A16804321160943201211160E168B6
S31501001070903A1160943204211160A169883A116095
S31501001080216B2C321160616B043211602169383A8F
S315010010901160A16B3C3211606169383A1160E16BF4
S315010010A03C321160216C04321160616C516018464A
S315010010B00593FFF75FFB059B0628F8D9236843F0E4
S315010010C002033B60E36A43F00203336025B9636DB3
S315010010D043F00203C9F80030E2695C4B1A60226AE8
S315010010E004331A60626A04331A60A26C38331A60D8
S315010010F0E26C57485A6000230246016801F4E07128
S31501001100B1F5E07F01D00023F7E70133092BF4D9CC
S31501001110A5B9A36DC3F30803A1F53F11F8390B6017
S31501001120E36DC3F3080304310B60236EC3F30803B5
S3150100113004310B60636EC3F308034B60386840F0FB
S3150100114080733B60316841F08073336035B9636DFC
S3150100115043F0807343F00203C9F8003020F0807039
S31501001160386021F0807131601DB10023CBF8003069
S3150100117035E0636D43F00203C9F80030354BA16DCC
S31501001180354D18461E682E42FCD11960324B016856
S315010011901942FCD1314BE16D2F4D18461E682E4286
S315010011A0FCD119602C4B01681942FCD12C4B216EE4
S315010011B0294D18461E682E42FCD11960264B01683E
S315010011C01942FCD1274B616E234D18461E682E42EB
S315010011D0FCD11960204B01681942FCD1C5E7DAF848
S315010011E00030DB07FBD420490B6843F001030B6099
S315010011F0DAF8000010F00100FAD1236D03990B60B3
S31501001200A36A04990B6002994FF0FF330B600199B1
S315010012100B6016490B6038231360154A136843F0B7
S315010012200103136006B0BDE8F08E00BFA040D0FFF9
S315010012306040D0FF4040D0FF0D0001008040D0FF4C
S31501001240AC40D0FF7040D0FF4840D0FF6440D0FF93
S315010012500840D0FFC840D0FF00FE1F00CC40D0FFA1
S31501001260D040D0FFD440D0FF0040D0FFD840D0FFBF
S315010012701040D0FF0440D0FF1440D0FFC040D0FF43
S315010012800B4B10B51C68C4F305410A480131C4F380
S31501001290CC0421F0D9FD084B196804FB000001318B
S315010012A021F0D2FD054B1968013121F0CDFD10BDAC
S315010012B04040D0FF40787D01E040D0FF4840D0FF5C
S315010012C00D4A10B51368C3F381530C48022B1468F9
S315010012D028BF0020C4F30541C4F3CC04013121F039
S315010012E0B3FD074B196804FB0000C1F30801013186
S315010012F021F0AAFD10BD00BFC040D0FF40787D019E
S31501001300C840D0FF1A4B10B51B689B0712D4194B66
S315010013101C68C4F3054118480131C4F3CC0421F01B
S3150100132093FD164B196804FB0000013121F08CFD79
S31501001330134B12E0134A1368C3F381530E48022B71
S31501001340146828BF0020C4F30541C4F3CC0401315D
S3150100135021F07AFD0C4B04FB00001968013121F0E4
S3150100136073FD0A4B1B68C3F3C213D84010BD00BFFF
S315010013707040D0FF4040D0FF40787D01E440D0FF6F
S315010013804C40D0FF8040D0FF9840D0FF6440D0FF52
S31501001390194B10B5186810F003002AD001280DD199
S315010013A053F86C4CC4F3054114480131C4F3CC0421
S315010013B021F04AFD124B04FB000014E0022817D16C
S315010013C0104A1368C3F381530C48022B146828BFD3
S315010013D00020C4F30541C4F3CC04013121F034FDEE
S315010013E0094B04FB00001968013121F02DFD00E0D5
S315010013F00020800810BD00BFAC40D0FF40787D01C1
S315010014005840D0FF8040D0FF9440D0FF194B10B513
S315010014101868C0F3011060B301280FD153F86C4C62
S31501001420C4F305411448013121F00EFD134B19682F
S31501001430C4F3CC04013104FB000016E0022817D1E5
S315010014400F4A1368C3F381530B48022B146828BF54
S315010014500020C4F30541C4F3CC04013121F0F4FCAE
S31501001460084B196804FB0000013121F0EDFC10BDA9
S31501001470002010BDAC40D0FF40787D015440D0FF24
S315010014808040D0FF9040D0FF10B546F2A8111E480B
S3150100149008F070F946F2A8111C4808F06BF9002112
S315010014A01B4808F067F900211A4808F063F91A4C3D
S315010014B0FFF7E6FEA0FB04011848890C08F05AF96B
S315010014C0FFF7FEFEA0FB04011548164C890C08F037
S315010014D051F9FFF717FFA0FB04011348890908F02A
S315010014E049F9FFF755FFA0FB04011048890908F0E7
S315010014F041F9FFF78BFFA0FB04010D48BDE8104041
S31501001500890908F037B900BF285C0201435C020172
S315010015105E5C02017F5C020183DE1B43A05C02016B
S31501001520BA5C0201D34D6210D45C0201EF5C020188
S31501001530095D020110B5FFF7E5FE044C2060FFF7D7
S3150100154027FF6060FFF762FFA06010BDD00F0301A7
S315010015501EFF2FE1100F11EE020BC0E3010AC0E3DB
S31501001560100F01EE4FF07FF56FF07FF534109FE518
S3150100157034209FE5021081E0000091E52C309FE5C3
S31501001580030080E1000081E54FF07FF56FF07FF504
S31501001590104F11EE024B84E3014A84E3104F01EE32
S315010015A00000A0E30EF0A0E10000C2FF5C500000C5
S315010015B008000000F04F2DE928119FE528219FE53D
S315010015C00230A0E1F00FB1E8F00FA3E8F00FB1E8A7
S315010015D0F00FA3E8F00FB1E8F00FA3E84FF07FF5A5
S315010015E06FF07FF532FF2FE1F08FBDE8F04F2DE967
S315010015F0200052E30000000A0300009AF00FB0E851
S31501001600F00F81E8202052E2F8FFFFEA040052E3DE
S315010016100000000A0300009A1000B0E8100081E8FB
S31501001620042052E2F8FFFFEA000052E30100000A3B
S31501001630003090E5003081E5F08FBDE894009FE52C
S315010016400410A0E31920A0E3013080E0004093E5F7
S31501001650025084E1005083E54FF07FF56FF07FF58E
S315010016605410A0E30320A0E3013080E0002083E5CD
S315010016705810A0E30320A0E3013080E0002083E5B9
S315010016809010A0E30120A0E3013080E0002083E573
S315010016909410A0E30120A0E3013080E0002083E55F
S315010016A034009FE534109FE50020A0E3002081E58A
S315010016B00410A0E3012080E00130A0E38330A0E123
S315010016C0004092E5044083E1004082E54FF07FF55A
S315010016D06FF07FF5FCFFFFEA0040D0FF0050D0FF1E
S315010016E0E080D0FFA8000000541500010000FFFFB4
S315010016F008B510F005FC02200249BDE8084010F0CB
S3150100170011BC00BFDC0F030108B5024808F01EF842
S31501001710002008BD245D020110B588B0FFF7E8FF7F
S315010017202349244806F0ADF9234B1A68234C684631
S3150100173021461DF098FA6946214806F0CFF821495D
S31501001740214806F09EF9214B1A68214668461DF08C
S315010017508AFA69461E4806F0C1F81E491E4806F077
S3150100176090F91E491E4806F08CF91E4B1A6821464F
S3150100177068461DF078FA69461B4806F0AFF81B4922
S315010017801B4806F07EF91B4B1A68214668461DF078
S315010017906AFA6946184806F0A1F81849184806F089
S315010017A09DF81849184806F099F8002008B010BDB0
S315010017B02880D0FF455D02018880D0FF4E5D020181
S315010017C0555D02018050C2FF665D02018C80D0FF2B
S315010017D0715D0201B4150001845D02011C50D0FF48
S315010017E0955D02018080D0FF9F5D0201000080FFB0
S315010017F0B15D02018480D0FFB95D0201C95D0201BC
S315010018006B5E0201815E0201DB5E02010020704710
S3150100181000220421014812F077B900BF004070FF91
S3150100182000F05FBB74D09FE507D0CDE380D04DE2D9
S3150100183007D0CDE30D80A0E10000A0E36A0000FA25
S3150100184044D098E507D0CDE3008098E5808048E252
S3150100185014E08FE2480098E500E08EE0440098E548
S315010018600810A0E1342098E519FAFFEA46FAFFEBE1
S315010018702C009FE52C109FE50020A0E3010050E11C
S315010018800020803504008032FBFFFF3A200000FA79
S315010018901F0000FB0800A0E1341098E508F09FE561
S315010018A080FEFFFF00000000000000003F1900015C
S315010018B00020704708B5064807F048FF0221054891
S315010018C010F0CCFD044807F041FF002008BD00BF21
S315010018D0EA5E0201A08601004CD3020108B5034964
S315010018E0034807F047FF002008BD00BF0838020182
S315010018F0F25E020110B54FF4E1320A210348444673
S3150100190006F056F9A060002010BD00BFF95E020185
S31501001910002070477047704770477047704770479F
S31501001920704770477047D8F8002000219161D8F8B8
S315010019300020D8F83830D36170470020704708B5C9
S315010019400C46D8F8043043F00103C8F804301D4BA7
S315010019501A681D4B1A60FFF763FF21F0C8F914F0EE
S315010019606FF84FF48421A4F58420184C08F09CF8F4
S31501001970FFF7E3FF164807F0E9FED8F8000011F07B
S31501001980D5FE09F047F80DF06DF809F06AFB07F08E
S31501001990E1FFFFF7C1FE00F055F900F069F9226891
S315010019A010210C4806F004F9206021F0AAF90A4832
S315010019B007F0CCFED8F800001FF058FB0CF0CFFB67
S315010019C0FCE700BF9000000104440301CC2D030194
S315010019D0025F02010A5F0201135F020108B50248B4
S315010019E007F0B4FEFEE700BF1B5F02012DE9F042DE
S315010019F08022002140461CF093FB2E4B10212E48DD
S31501001A001B68C8F83C304446D8F8542006F0D0F894
S31501001A1060652A4C54F8047F27B1B8470028F9D0ED
S31501001A20FFF7DCFFD8F838404FF48042C8F8502061
S31501001A3041F29B01D8F85020A41A240C2404C8F8BA
S31501001A404C40D8F83C20A41A24F47F6424F00F04F7
S31501001A50A4F58425A4F58526A5F12002C8F8002061
S31501001A60D8F80020A03DB03E5160C8F84050D8F8E3
S31501001A700020D8F808301360FFF755FF1048D8F852
S31501001A800030D3F81C9007F061FE39460D4A4846EE
S31501001A901BF000FA0C4B284680221B68C8F834401C
S31501001AA04146C8F84460E41AC8F84840BDE8F04227
S31501001AB01CF066BB8C000001455F0201F00F0301BB
S31501001AC0545F02010EB7020180000001D8F8003010
S31501001AD037B504465B68056E1048019306F03EF87B
S31501001AE038B1102101AA1DF023F801990C4807F01D
S31501001AF041FE0F200BF0DAFF0A4807F03BFEFEF726
S31501001B00A2FD236F0BB1E26E02E0D8F800309A68AD
S31501001B1001990020A84703B030BD00BF5C5F0201F8
S31501001B20635F0201885F0201036F30B5044689B025
S31501001B30002B3AD000F19005C16E039328460BF0B5
S31501001B40BFFD616EA26E04F1780328460093521A16
S31501001B5004F174030BF054FD18BB284603AA04F1E3
S31501001B606C010BF0DBFD0546E0B90121E06E09F0E1
S31501001B7091FC04A9E06ED8F80030059507959A699D
S31501001B80DB69049206AA0693012309F074FDE06E4F
S31501001B9009F047FE0123A26F616FE06E09F0ECFBCD
S31501001BA008E0054635B1044800E0044807F0E2FDC7
S31501001BB0FFF714FF09B030BD9F5F0201BF5F02014D
S31501001BC010B46946D8F80040A1F58051D8F8002034
S31501001BD0A369D26910BC1A44521A1CF090B8704716
S31501001BE070B510F030041D4614D110F0400603D034
S31501001BF01846FFF799FF0FE010F08004184603D04E
S31501001C00FFF764FF344607E0FFF78EFF2846FFF72C
S31501001C105DFF01E04FF0FF34204670BD10B5074B64
S31501001C20446A9C4204D0064807F090FD012010BD8D
S31501001C30836A0B60C36A0020136010BD18286F0108
S31501001C40F05F02010749D8F84030D8F84020181F44
S31501001C50086005490832A3F204430A60034A136087
S31501001C60FFF7F0B8940000019C0000019800000104
S31501001C70EFF3008323F0800383F300817047EFF3D2
S31501001C80008040F0C00383F3008180F08000C0F340
S31501001C90C010704708B501481CF0F2FF0D60020143
S31501001CA030B5A3B0044680222A4902A81CF068FA7E
S31501001CB0E36A256C28480193236B0093636BA26B3F
S31501001CC0E16B07F057FD236A626AA16A234807F0B0
S31501001CD051FD2369224800936369A269E16907F00E
S31501001CE049FD23681F480093E1686368A26807F00D
S31501001CF041FD002DB4BF4E216E2115F0804F14BF5A
S31501001D005A227A2215F0005F14BF4323632315F08C
S31501001D10805F14BF562076200090134807F02AFDF5
S31501001D20236C124A22AC124813F0800F14BF1146DD
S31501001D30014613F0400F03F01F0308BF02460D488A
S31501001D4004EB83030C4C009453F8803C07F012FD1E
S31501001D5023B030BDC033020120600201656002017B
S31501001D6089600201B9600201E96002017F63020133
S31501001D7094000301F9600201C782020108B5044615
S31501001D80034807F0F7FC2046FFF78AFFFFF782FFBB
S31501001D901861020108B50446034807F0EBFC20462A
S31501001DA0FFF77EFFFFF776FF2F61020108B50446B4
S31501001DB0034807F0DFFC2046FFF772FFFFF76AFFD3
S31501001DC04361020108B50446034807F0D3FC2046E7
S31501001DD0FFF766FFFFF75EFF5361020108B5044690
S31501001DE0034807F0C7FC2046FFF75AFFFFF752FFEB
S31501001DF09D61020108B50446034807F0BBFC204675
S31501001E00FFF74EFFFFF746FFA761020108B5074836
S31501001E1007F09CFC4CF250301CF062FAFFF72FFFE2
S31501001E200020FEF703FD002008BD00BFAB620201E2
S31501001E3070474FF0FF310020FEF7C3BB014807F0A2
S31501001E4085BC00BFBA62020182B000230193019BE7
S31501001E50632B03DC0046019B0133F7E702B07047B1
S31501001E607047D8F84C3041EA005141F4406143F8DB
S31501001E70201070477047F8B500F57F2303F6FF730E
S31501001E80050D1944D8F84C702E460C0DA64205D204
S31501001E9030461146FFF7E5FF0136F7E707EB840108
S31501001EA007EB8500BDE8F840FEF77CBB08B511EEEF
S31501001EB0102FFFF7C9FF42F4805201EE102F08BD23
S31501001EC008B5FFF7C1FF11EE102FFFF7BDFF22F492
S31501001ED0805201EE102F08BD11EE100FC0F3003035
S31501001EE0704710B511EE102F12F001042AD1FEF73A
S31501001EF033FB224610461221FFF7B3FF0132B2F53A
S31501001F00805FF7D1D8F80040A269120DA169E36993
S31501001F100B44B2EB135F05D210461621FFF7A1FF62
S31501001F200132F3E7D8F84C3002EE103F4FF0FF33A1
S31501001F3003EE103F11EE102FFFF786FF42F001026C
S31501001F4001EE102F11EE102FFFF77EFF42F0040273
S31501001F5001EE102F10BD10B5FFF776FF11EE104FF1
S31501001F60630707D5FFF770FF24F00504FEF7E3FAD0
S31501001F7001EE104F10BD11EE100FC0F38000704737
S31501001F800A460146014807F0F5BB00BFD7620201C8
S31501001F901FB5D8F8004027486168FFF7F1FFA1682F
S31501001FA02548FFF7EDFF00212448FFF7E9FFA16966
S31501001FB02348FFF7E5FFE1692248FFF7E1FF2249E0
S31501001FC001A81BF0B5FF01A805F0C8FD1F4A01A92C
S31501001FD0002818BF02461E4807F0CCFB1D4805F035
S31501001FE0BDFD01461C4807F0C5FB21681B4807F0EB
S31501001FF0C1FB1B48D8F84C10FFF7C2FF1948D8F8A7
S315010020003410FFF7BDFF1848D8F84810FFF7B8FF9E
S315010020101648D8F84010FFF7B3FF1548D8F8441012
S31501002020FFF7AEFF1348D8F81810FFF7A9FF0020F5
S3150100203004B010BDF1620201FD62020109630201F1
S31501002040136302011C63020124630201E7620201B8
S315010020502C630201376302013E63020150630201F0
S31501002060666302016F630201796302018363020100
S315010020708A63020194630201034608461146184722
S31501002080012A70B5164618DD1C46102254F8040FB5
S3150100209000211CF015FD054601460A4807F06AFBBA
S315010020A02246711E2846FFF7E7FF041C0146064833
S315010020B018BF012407F05EFB01E04FF0FF34204614
S315010020C070BD00BFC0630201E863020138B500F1CB
S315010020D0900420461BF0C4FD0BF075F805460BF085
S315010020E081F82946024620461BF0C5FD2046FFF72A
S315010020F067FD2046BDE838401BF08DBE38B5014668
S315010021000446184807F036FB20460BF0AFF90128C4
S31501002110054621D1144807F019FB2268134B9A4250
S3150100212001D0134804E020460AF0F6FF18B9114819
S3150100213007F00CFB14E020460BF0E2F80E4807F01E
S3150100214005FB20460AF0FDFF08B90C48F0E70C48EC
S31501002150002507F0FBFA03E00A48012507F0F6FA25
S31501002160284638BDAF640201D0640201270519561D
S31501002170E7640201FC640201146502012F65020194
S31501002180406502014465020110B50C46034805F09D
S31501002190E5FC21460BF0C4FFC00F10BD5B650201D3
S315010021A030F0800210B508D11C6E0548214607F0B3
S315010021B0E1FA0F200BF07AFCA047012010BD00BF09
S315010021C06365020130F0800210B50AD11C6E064823
S315010021D0214607F0CFFA0F200BF068FCD8F8000073
S315010021E0A047012010BD00BF9A6502012DE9FF4EEF
S315010021F01F4630F080038A46154654D197F822309F
S31501002200042B01D0002609E03E6803AB02AA012196
S3150100221030460AF0B0FF039B002BF3D0BAF1020F50
S315010022202CDD4FF00009022455F8240001341BF07F
S31501002230DFFEA24500F101008144F5D1484608358B
S3150100224007F02AFD4FF002094FF0000B2023044648
S31501002250009504EB0B0055F8041B09F101090193E4
S315010022601BF066FE009A10681BF0C2FECA45019B70
S3150100227058440AD000F1010B2354E9E70C4805F054
S315010022806DFC0C4C002818BF04463D6E0A482946D1
S3150100229007F070FA0F200BF009FC2346054A314678
S315010022A0D8F80000A847012004B0BDE8F08E00BFB1
S315010022B0D3650201C7820201DC650201012AF8B574
S315010022C016461F4604DC0B4B1868BDE8F84015E7B7
S315010022D0002501241022002157F8240001341CF0A6
S315010022E0EFFBFFF70BFF002818BF0125A642F1D12E
S315010022F02846F8BDCC2D03012DE9F34E81469DF804
S3150100230030008A4693460A9D9DF82C400D9E0E9FED
S3150100231001930AF0E1FF014614B1012C1AD032E013
S315010023204D4501D05D4504D12A48012407F022FA22
S3150100233009E0294807F01EFA4FF48033019A5946FD
S3150100234028460AF07DFF019B24482B44336007F0A1
S31501002350FDF91FE0224807F00DFA01AB5A464FF48A
S31501002360000128461AF01CFF40B11E4807F0EEF99D
S3150100237037B36FF005000BF099FB21E0019B044692
S315010023802B44336006E02146174807F0F3F96FF056
S3150100239002001BE031682846491B8900FEF711F946
S315010023A00E4807F0D3F907200BF080FB5CB95545C1
S315010023B00BD233684B4594BF00206FF0010005E056
S315010023C04FF0FF3002E0002000E0204602B0BDE8F9
S315010023D0F08E00BF256602013466020140650201E6
S315010023E04766020160660201B16602012DE9FF4EF0
S315010023F01746894C4FF498720391824600219946FB
S3150100240020461BF08DFE854808F03EFAC4F8880088
S315010024102046FFF75BFE012F02DC814B1D6806E0BB
S3150100242010220021D9F804001CF04AFB05460120C0
S315010024304FF0000B0BF03AFB28460BF027F8C4F8D7
S3150100244054B0C4F850B0054606460BF00FF8012803
S3150100245044D12946734807F08DF92A68724B9A428E
S3150100246005D0724807F072F94FF0FF3032E00220D2
S31501002470D4F888B00BF01AFB28460AF04DFE28B9AD
S315010024806B4807F063F96FF0010023E003200BF0BE
S315010024900DFB28460AF034FFBBF1000F0FD065484B
S315010024A007F054F928460AF04CFE28B9624807F0AD
S315010024B061F96FF002000DE0604807F047F904206A
S315010024C00BF0F4FA697F022970D05D4807F052F9E2
S315010024D06FF003000BF0EAFA002609E0DAF80010C3
S315010024E05E46584807F046F96FF06B000BF0DEFACE
S315010024F0636D0BB954481BE030460AF0B7FF01285B
S31501002500824614D1B17F06F1400084F85D10F37F55
S3150100251084F85C30327F84F85E20F3681BBA03448A
S31501002520E36433691BBAA365636C33B90FE04748AB
S3150100253007F00CF94FF0010A69E0A3690E291BBAED
S31501002540236606D1216D0B442366A16503E040484D
S315010025501FE0022958D1052A21D13E4D4946384668
S315010025602B1FA5F168020093022301950AF091FF42
S3150100257008B139480DE005F108034A460193394689
S315010025802B1D03980093A5F168030BF04DF918B1C3
S31501002590324807F0DBF83AE0E06E00F087FD0123F0
S315010025A0A664C4F88C304FF0000A30E005200BF029
S315010025B07DFAAB7F022B1AD105F140032365EB6847
S315010025C01BBA636507E0042B14D1254B002128466D
S315010025D01A1F0AF0D0FD4022294622481BF0F6FDBB
S315010025E006200123256063640BF060FA80E7EAD8D0
S315010025F0012B00E00E2BDFD0DAF800101A4807F0A5
S31501002600B9F86FF0040065E70429C8D1A3E750467D
S3150100261004B0BDE8F08E00BF40440301D466020158
S31501002620CC2D0301DB66020127051956EA64020176
S31501002630FF6402011465020132650201406502016F
S315010026400D6702014D670201706702019067020181
S31501002650B3670201A8440301D7670201FC670201BF
S3150100266094440301444403012C67020170472DE998
S31501002670F04E012A90B01E4681464FF000038A466D
S315010026801746069340F3CC80102207A970681CF008
S3150100269017FA079B1B78002B00F0C2803A2B00F03B
S315010026A0BF80232B00F0BC800822B049706806F079
S315010026B0C9FC002800F0AF80C468012C06D1331D87
S315010026C07A1E51464846FFF791FE7FE0DFF8A89251
S315010026D0D9F88C309C4203DCA54807F04BF89AE008
S315010026E0234399F85E20C9F88C30082CA14B53F886
S315010026F022A05DD005DC022C18D0042C40F08E807F
S3150100270032E0202C6FD002DC102C61D086E0402C08
S3150100271074D0802C40F08280FFF7B1FAFFF7A6FF54
S31501002720954B324639462046D04777E0002304933D
S3150100273008AB039399F85D3009F14800029399F8C3
S315010027405C300193D9F8583000930FC8FFF7D4FDD8
S315010027500446002840F00581D9F85810089A8748A0
S31501002760521A1BF0CCFAFCE08548D9F86410D9F866
S315010027706820031F00901830521A0AF041FF0446E0
S31501002780002840F0EE80D9F8742008A87D491CF095
S315010027906AFA08A97C4805F0A1F8D9F878207949A0
S315010027A008A81CF060FA08A9784805F097F8D8E05F
S315010027B0D9F86C1009F190000AF082FF09F1700254
S315010027C009F16C0109F190000AF0A8FF0446C8E07E
S315010027D02046694B32463946D0470446002800F068
S315010027E0C0806B4814E0644B324639462020D047FE
S315010027F00446002800F0B580664809E020465E4B95
S3150100280032463946D0470446002800F0AA8062487D
S3150100281006F0B0FFA5E04FF0FF34A2E00024A0E0EF
S3150100282033463A4651464846FFF7E0FD044600283E
S3150100283040F09680FFF723FA4F4D83460CF074F96A
S315010028400123049306AB039395F85D3005F1480027
S31501002850029395F85C300193AB6D00930FC8FFF7B7
S315010028604BFD002825DA421C12D0831C17D16B6C54
S315010028703BB195F82230042B1BD1484806F066FF80
S3150100288017E0474806F062FF6FF070000BF00EF993
S3150100289033463A4651464846FFF7B8FA09E003304F
S315010028A007D1BBF1000F01D0FFF7E2F96FF0060087
S315010028B042E0A96D069A3148521A1BF020FA95F8A2
S315010028C05D30012B1ED1BBF1000F01D0FFF7D0F90E
S315010028D0344805F043F978B133491BF061FB814671
S315010028E050B96A6D08A831494C461CF0BCF908A9D3
S315010028F02F4804F0F3FF34E02B6E311D781E1BBA0E
S3150100290098472EE008200BF0D1F895F85E20194B78
S3150100291053F822409CB9BBF1000F01D0FFF7A8F98B
S3150100292095F85E000AF0C5FC95F85E20014621483F
S3150100293006F020FF6FF007000BF0B8F810E0FFF784
S3150100294095FE0D4B324639460020A0476FF0080030
S315010029500BF0ACF833463A4651464846FFF756FA6D
S315010029600124204610B0BDE8F08E00BF2C100301F3
S31501002970206802014034020140440301D0440301AE
S31501002980B84403014A6802014E6802015B6802010C
S315010029906668020188680201A6680201C56802012B
S315010029A0FF68020146690201506902015369020189
S315010029B0576902016069020173B505460D480E4665
S315010029C005F0CCF808B9002012E00B491BF0E8FA33
S315010029D004460028F7D1094B019009481968009669
S315010029E006F0C8FE6B46012221462846FFF73FFE48
S315010029F002B070BD466902018E690201CC2D030148
S31501002A009269020108B5034806F0A0FE4FF0FF30B7
S31501002A1008BD00BFBF6902012DE9F042D0B01446DE
S31501002A2081464FF498720E4604A800211D461BF0FC
S31501002A3077FB04A8FFF74AFB012C03DC264B1B6836
S31501002A401C9305E01022002168681CF039F81C90DF
S31501002A5003AA02A91C98FFF7E1F8002838D1029BC6
S31501002A6028A8039A1C99D21A1BF049F91EAB04AA8D
S31501002A70019329461DAB2046009302230AF009FD66
S31501002A8008B116480CE020AB2A46019321461FAB3C
S31501002A903046009304AB0AF0C7FE074618B110484A
S31501002AA006F054FE14E01F9800F000FBFFF7E7F86C
S31501002AB00CF03AF8FFF7DAFD04AB2A462146384610
S31501002AC0FFF78EF82B46224631464846FFF79EF918
S31501002AD0012050B0BDE8F082CC2D0301D767020179
S31501002AE0FC6702012DE9F7460BF07AFF1C4F0646FB
S31501002AF01C4806F02BFE3468B4422CD054F8342C12
S31501002B00A4F13409DFF868A00025002AB4BF5323D5
S31501002B102E2312F0010F14BF49212E2112F0020FAC
S31501002B200091A4F12C0114BF4F202E2001900E48D4
S31501002B3006F020FE5AF82530994504D157F825109C
S31501002B400A4806F017FE0135032DF3D10A2006F0D7
S31501002B50EDFD2468D0E7002003B0BDE8F08600BF94
S31501002B60D42D0301996B0201B56B0201E0AE02019E
S31501002B70386803012DE9F04E9CB014468A4604904C
S31501002B80292003930AF092FF032C06DD6FF029003A
S31501002B904FF0FF340AF08AFFA0E02A200AF086FFF0
S31501002BA0012C07DD039B1022002158681BF088FFCA
S31501002BB0054601E04FF400452B200AF077FF032C70
S31501002BC007AA4FF001040CBF039B0021504608BF22
S31501002BD0996808AB00940EF09BF9B0F1000902DA8E
S31501002BE06FF02B0020E0079B2C205E680AF05EFF49
S31501002BF0514613AB3B48019332460BAB00934B4610
S31501002C0006F0B8FD079B224608993046D3F860A026
S31501002C102B46D0470128824609D04A4631463248DA
S31501002C2006F0A8FD6FF02F000AF040FF56E03020B5
S31501002C300AF03CFF28460AF019FC0128044633D164
S31501002C4031200AF033FF28460AF066FA28B92748E8
S31501002C5006F07CFD6FF03100E6E732200AF026FF30
S31501002C6028460AF04DFB0A9BE86803F13F0200BAC9
S31501002C7019461044059320F0E7F8079A0899136E50
S31501002C8001311F46059B2B4400F1FF3B824630462E
S31501002C905A46B847834510D04A463146124806F08F
S31501002CA069FD6FF03200BFE76FF0300054460AF05D
S31501002CB0FDFE0F4806F04AFD10E033200AF0F6FE4D
S31501002CC00A99284601FB0AF1FDF77BFC094B04989A
S31501002CD01D60039B1968FFF76FFE044620461CB072
S31501002CE0BDE8F08EF56B0201396C0201516C0201EF
S31501002CF06D6C0201CC2D03012DE9F04E0127DFF8A1
S31501002D00689092469B463E46564526DA012E5BF86A
S31501002D10264002DD202006F009FD494620461BF02B
S31501002D2088FA0546A0B1002720462F702C4606F0EA
S31501002D300DFD5C23494604F8023B20461BF079FA57
S31501002D4005460028F0D120462F4606F0FFFC02E09A
S31501002D50204606F0FBFC0136D6E717B10A2006F03D
S31501002D60E5FC0020BDE8F08E846C0201012A08B55D
S31501002D7005DD0A22002158681BF0A2FE00E00020B2
S31501002D80C0F1FF2000F57F00FE3008BD13B5022417
S31501002D90009418F0A7FE02B010BD13B54FF0100E47
S31501002DA002248DE8104018F001FE02B010BD0000AB
S31501002DB013B54FF0100E01248DE8104018F0F6FD02
S31501002DC002B010BD13B50124009418F08BFE02B0B9
S31501002DD010BD012AF0B51D4699B004DC104806F075
S31501002DE0C9FC00201AE0012404AB009403AAA968D7
S31501002DF068680EF08DF8071E0FDB039804A9466874
S31501002E0017F056FF30B13B4632466968054806F071
S31501002E10B1FC02E018F06AFB00E0204619B0F0BDF3
S31501002E20786E0201A36E02012DE9F046042A99B0DB
S31501002E301D464FF00003039303DC06F043F90446F5
S31501002E4039E0012604AB009603AAA96868680EF06A
S31501002E505FF8B0F100092DDB039804A9476817F064
S31501002E6027FF044630B14B463A466968144806F0D6
S31501002E7081FC1FE001461022E8681BF021FE1022AA
S31501002E802146824668691BF01BFE514602462869A7
S31501002E9018F0B5FB431C014608D1CDF800903B461E
S31501002EA06A682969074806F065FC03E0064806F0EA
S31501002EB061FC00E03446204619B0BDE8F08600BF4B
S31501002EC0CE6E0201FA6E0201256F020110B599B1AB
S31501002ED0431813F8013C0BB10A2B0DD10E4C0246D7
S31501002EE012F8013B53B1E35C13F0B70000D110BDFA
S31501002EF0002901DD0139F3E7002010BD002907DDB6
S31501002F00012903D010780028F4D104E0084610BD49
S31501002F100CBF0120002010BDEC4D020138B51B4D40
S31501002F202C6824B91A4806F025FC204638BD2046EF
S31501002F3018F0F8FD041E24DA19F052FD0146154871
S31501002F4006F018FC0A3418D12B68596909BA0F29F9
S31501002F5005D81022104806F00DFC00232B602A68C4
S31501002F6093691BBA112B0ED9516911220B4809BA63
S31501002F7006F000FC0020286038BD094806F0FAFB7F
S31501002F8001E0012038BD002038BD00BF70450301B6
S31501002F90C8720201F372020111730201297302015F
S31501002FA00EB702012DE9F84606460C46002964D003
S31501002FB0FFF78CFF0546F0B13148002506F0C6FB48
S31501002FC0304FA54212DA002D02DD384606F0BEFB6F
S31501002FD03046013506F0BAFB30461BF009F80544C8
S31501002FE030461BF005F801300644EAE72448BDE8FF
S31501002FF0F84606F0ABBBA30725D1402C06DD2246D9
S3150100300031462148BDE8F84606F0B4BB1F48002505
S3150100301006F0B0FB002CB8BF0334DFF88090DFF870
S3150100302088A0A410671EA5420BDA56F82510BD42EA
S31501003030ACBF4A4652461648013509BA06F09AFB14
S31501003040F1E7144815E0402CD9DC134806F092FB51
S31501003050124FDFF85490AC420ADD621E715D954253
S31501003060ACBF3A464A460E4806F084FB0135F2E704
S315010030700C48BDE8F84606F07DBBBDE8F88600BF02
S315010030804473020141730201467302015673020140
S3150100309058730201C57C020161730201C7820201F4
S315010030A063730201A3A50201F90403017FB5024678
S315010030B0064B0749186001A81BF0D5FD01A9054873
S315010030C004F00CFC07B05DF804FB00BF704503017A
S315010030D04A6802016A730201012A2DE9F04E9246FD
S315010030E096B01F4640F3538158680378612B37D158
S315010030F0022A07D1FFF712FF002838D0A54BA648B0
S31501003100196829E010220021B8681BF0D9FCFFF7E5
S31501003110CDFFFFF703FF50B3BAF1030F00F044846C
S3150100312010220021F8681BF0CBFC9A4B19684A68FB
S3150100313012BA904205D20146984806F01BFB00F0F0
S3150100314033BC0246084619F0B8FB002800F02C846F
S3150100315019F046FC0146924806F00CFB00F024BC2F
S315010031608C4D2B682C4633B98E4806F0EFFA4FF09A
S31501003170010900F01BBC02228B491AF01CFF814693
S31501003180002837D1BAF1030F40F30181014610221D
S31501003190B8681BF095FC2860FFF7C0FE0028E6D052
S315010031A010224946F8681BF08BFCBAF1040F06465B
S315010031B003D12B685B681BBA0FE0102249463869B8
S315010031C01BF07EFC2A68526812BA904201460346F9
S315010031D003D2764806F0CEFAC9E71A463146206888
S315010031E019F06BFB20B119F0FBFB01466C486BE251
S315010031F02660DBE302226E4978681AF0DCFEB8B974
S31501003200BAF1030F40F3C380B9682868FC6818F067
S315010032103BFF011EC0F254822246286819F026FBA4
S31501003220002880F2C18319F0DBFB014661484BE2BD
S3150100323078680378732B40F0A180BAF1030F40F34D
S31501003240A680BB68BAF1040F0393FB6804937FD091
S315010032503B6907F11009AAF1040A0A931A783C2A74
S315010032602DD10DF1580B013300254BF8303D231DAF
S315010032702E460A9F39783E296BD0B24540F3928398
S3150100328021B9013659F826200A92F2E70022594659
S31501003290384605931BF014FC0A9A059B0435D21B8C
S315010032A0002A00BA43F8040B02DC394642480BE215
S315010032B00A9A11782029DCD101320A92F8E75B2AB1
S315010032C02FD10DF1580B01333C4F00254BF8303D02
S315010032D02E463B4B0A9A12785D2A1CD00A98027830
S315010032E0202A02D101300A90F8E722B9013659F8AD
S315010032F026200A920DE09A5C059312F0440F0AD03B
S31501003300102259461BF0DCFB059B0135013707F8F6
S31501003310010CB245DEDC0A9B19785D2940F0428337
S3150100332017E0DFF8989000252E460A9801361AF024
S315010033305FFE0A9900F1010B48461AF0F9FD07EB09
S315010033408603B245D9441B695D440A93EDDC00E06E
S3150100335000250399206818F097FE011EC0F2B0817E
S315010033600095164B049A206819F09DF9002880F201
S315010033701B8319F035FB01461248A5E1672B40F086
S31501003380C880BAF1040F4FF0000307931CDC4FF01D
S31501003390FF390BE3704503018B730201A973020127
S315010033A0D8730201F47302016474020167740201A5
S315010033B01E780201C0740201DE7402017445030124
S315010033C0EC4D02011A750201BAF1050FBE6802D170
S315010033D03378732BDBD139692068FD68D7F81490EF
S315010033E018F052FEB0F1000BC0F26A8133786E2BF1
S315010033F004D0732B47D1BAF1050F44D15946206841
S3150100340018F02FFF0DF15809594649F8380D824633
S315010034104A46206818F028FC33786E2B834606D17D
S315010034201022002178691BF04BFB034601E04FF0A7
S31501003430FF334FF0FF370AF101020392089A9245D2
S3150100344019DA03998A42327808BF01376E2A08D100
S315010034509F4206D159460022206818F025FD0146F3
S3150100346043E059464A462068049318F0FDFB049B45
S31501003470B0F1000BE2DA3378732B02D17A1CA24940
S3150100348043E0A248BDE04A4607AB5946206818F01A
S31501003490B5FDDDF81C90B9F1000F074604D19C4932
S315010034A0284604F01BFA81E26CDD3378762B22D1B3
S315010034B04946FFF70BFD08B1394616E0B9F1040F8D
S315010034C001D13A6820E019F0030412D1B9F1140FC1
S315010034D00FDC904E0AAB3A5903EB440031460434F3
S315010034E01BF0C1FBA145F5DC0AA9284604F0F6F953
S315010034F05AE2894885E0612B02D10246874904E0F8
S31501003500732B7FF444AF4A4685490AA81BF0ABFBEF
S31501003510EAE7702B04D06C2B40F0C680012600E050
S315010035202026BAF1020F06D0BAF1030FD7F808B078
S3150100353003D0FD6802E0DFF82CB200255946206869
S3150100354018F0A2FD071EC0F2BB80EDB120680AABE0
S315010035502A46394618F052FDDDF82890B9F1000FD8
S31501003560044605D12A4659466E4806F003F91DE27E
S3150100357008DD29466C4806F0FDF80A992046FFF752
S3150100358011FD43E148465EE0DFF8DC91DFF8DCA19E
S31501003590394608AA206818F000FB431E0146082B8D
S315010035A078D801A252F823F0CD3500010936000181
S315010035B02536000187360001953600019536000152
S315010035C095360001953600016F310001002239461A
S315010035D0206818F069FCAE420FDB544BC5F120019F
S315010035E04944002808BF1846514B0278002A14BFE7
S315010035F002461A464F4806F0BDF801351F2D4EDD2D
S315010036004D4806F0B7F8B2E5013DAE4247DBC5F1DC
S3150100361020014A48494406F0ADF8002D08BF4FF095
S31501003620FF353CE00C223946206818F0A1FA816882
S315010036300746206809BA18F0B8FB7B68024618BA33
S3150100364000280A9004DA19F0CBF901463C483BE020
S3150100365008D1AE4223DBC5F120013A48494406F0C0
S3150100366089F81CE0AE421ADBC5F12001364849440F
S3150100367006F080F807F10C000A99FFF793FC33482E
S3150100368006F078F80BE0C5F120015046494406F0F2
S3150100369071F804E0AE42FFF66AAD2D4814E06B1CEA
S315010036A0089F7FF475AF7FE102222A491AF083FC55
S315010036B000285DD1B968286818F0E6FC011E06DA13
S315010036C019F08EF90146244806F054F84FE5BAF18F
S315010036D0030F0CDDFA68286819F05EF8B0F10009ED
S315010036E080F2628119F07CF901461C4826E12868BE
S315010036F019F0CBF8B0F1000980F2568119F070F992
S31501003700014617481AE100BF9AD402013475020135
S31501003710C782020106830201527502016C7502011C
S315010037204B750201F0A60201BE7502017273020118
S31501003730897302018B75020193750201AF7502014E
S3150100374071750201B5750201BC750201B9750201F7
S31501003750D175020182BF02019A740201E575020167
S31501003760007602016316030165160301C4750201A1
S3150100377078680378682B4DD12B688E4819685D6986
S3150100378009BA05F0F7FF23688B482DBA5A6812BAB1
S31501003790114605F0EFFF23688848996809BA05F0D4
S315010037A0E9FF23688648D96809BA05F0E3FF23686B
S315010037B08448196909BA05F0DDFF2946824805F0F2
S315010037C0D9FF23688148996909BA05F0D3FF012D0C
S315010037D015D923687E48D96909BA05F0CBFF022DB0
S315010037E00DD023687B48196A09BA05F0C3FF102D6D
S315010037F005D923687848596A09BA05F0BBFF2068DC
S3150100380018F0F4FA0146754805F0B4FF744805F05E
S31501003810B1FFC9E0032273491AF0CDFB814640B9D5
S3150100382001461022B8681BF04BF92B6800BAD86123
S31501003830BCE002226C4978681AF0BDFB0546A8B9BE
S3150100384010220146B8681BF0BFF9102282468B464A
S31501003850F86829461BF0B8F952465B46CDE90001E6
S31501003860206807F0D3FF00EAE0799FE002225F4972
S3150100387078681AF0A0FB8146002862D1BB681B78E4
S31501003880702B2BD120684D4618F0B0FA584F0646DA
S31501003890584805F06FFF584805F06CFFB54280F2B5
S315010038A085800AAB08AA2946206818F083FAB0F188
S315010038B0000A07DA19F094F8D14601464F4805F097
S315010038C059FF73E00A9B2946099A38460135019347
S315010038D00B9B0093089B05F04DFFDFE7612B1AD187
S315010038E010220146F8681BF06FF9102282468B46BA
S315010038F0386949461BF068F952465B46CDE9000135
S31501003900206818F060FEB0F100094DDA19F068F888
S3150100391001463B4812E0642B7FF439AD0146102283
S31501003920F8681BF0CDF80146206818F075FEB0F175
S31501003930000939DA19F054F80146324805F01AFF40
S3150100394034E078680378632B20D1BAF1020F10D0E6
S31501003950BAF1040F7FF41BAD10220021B8681BF0E9
S31501003960AFF8102200210646F8681BF0A9F80546B3
S3150100397001E000252E460121206807F08BFD012379
S315010039802A463146206807F0F7FC0DE002221E495F
S315010039901AF011FB814600287FF4F9AC206807F084
S315010039A0A7FF03E019488FE64FF00009484616B015
S315010039B0BDE8F08E1C7602012B76020142760201E9
S315010039C0587602016F76020186760201947602012B
S315010039D0AB760201C2760201D9760201F0760201C6
S315010039E00EB7020107770201070103010B770201F6
S315010039F07A7702010E770201297702015B770201CC
S31501003A0094770201B3770201817C0201FF740201FE
S31501003A102DE9F04291465B481F4604F09FF80546A2
S31501003A20594804F09BF80446584804F097F80646AE
S31501003A3035B12846102200211BF042F8054601E067
S31501003A404FF0FF352CB12046102200211BF038F82B
S31501003A5004462EB13046102200211BF031F80646ED
S31501003A60A9F10203032B54D8DFE803F01E0E080266
S31501003A701022002138691BF023F806461022002186
S31501003A80F8681BF01DF8044610220021B8681BF0E7
S31501003A9017F8B9F1030F054606D10EF03DFA854236
S31501003AA0C4BF2C464FF0FF357F68394839461AF0B6
S31501003AB077FAD8B1394637481AF072FA88B13946D9
S31501003AC035481AF06DFA70B1394634481AF068FA79
S31501003AD058B1394632481AF063FA002847D1032013
S31501003AE004E0022002E0012000E004206A1C01D16A
S31501003AF02C480BE0012810DB032802DD042803D043
S31501003B000BE014B10EB108E0D4B9274805F01EFE4A
S31501003B1033E06B1CECD04FF0FF3004282DD8DFE8E2
S31501003B2000F003080B1F0F002846BDE8F0420EF017
S31501003B3087BA324621460CE01C4805F01BFE1CE004
S31501003B40204609F093FC012808D1E26804F14001FE
S31501003B5012BA2846BDE8F0420EF01ABA1448D5E763
S31501003B60324621462846BDE8F0420EF03DBA3946B6
S31501003B70104805F0FFFD0135BAD04FF0FF30BDE822
S31501003B80F08200BFF9770201FE7702010778020190
S31501003B908990020114780201EC6C02011A78020183
S31501003BA02178020126780201417802016478020136
S31501003BB06D6C02018F78020108B5034805F0DAFD44
S31501003BC04FF0FF3008BD00BF6478020137B5074DDD
S31501003BD0074C8DE80C000B46641B06490246284635
S31501003BE0A410614305F08CFA03B030BD000000005B
S31501003BF000000000B76DDBB60023C25C2E2A03D19C
S31501003C00034458783038704712B10133082BF4D188
S31501003C1001207047012A2DE9F04206460F4611DDC3
S31501003C20541E0A490B22586803F1040905F00AFAE1
S31501003C3040B1C5684B46224639463046AC46BDE8DA
S31501003C40F04260474FF0FF30BDE8F082601C03018F
S31501003C5008B5022102480EF001FC002008BD00BF94
S31501003C60A08601002DE9FF421D46131F9146012B37
S31501003C7002D94FF0FF303DE01022002168681AF0AA
S31501003C801FFF10220021C7B2A8681AF019FF0446C7
S31501003C90A868FFF7B1FF03280646EAD810220021DB
S31501003CA0E8681AF00DFFB9F1050F8DF80F0005D17F
S31501003CB01022002128691AF003FF00E001200F4DB0
S31501003CC021460419631A002B13DD012332460093A2
S31501003CD038460DF10F0301F101090EF01BFC10B17D
S31501003CE0284605F033FD42F6F8201AF0F9FA49465E
S31501003CF0E8E7002004B0BDE8F08200BFD07A0201F7
S31501003D00052A2DE9F3421C4602D04FF0FF3029E087
S31501003D105868102200211AF0D3FE10220021C6B2E3
S31501003D20A0681AF0CDFE0746A068FFF765FF0328D5
S31501003D300546EAD810220021E0681AF0C1FE1022D9
S31501003D400021814620691AF0BBFECDF800902A4673
S31501003D503946034630460EF09BFB18B1034805F081
S31501003D60F5FC012002B0BDE8F08200BFE97A02014C
S31501003D70022AF8B506D11022002158681AF0F9FE78
S31501003D80064601E04FF0FF360E48002505F0DEFC41
S31501003D900D4F2C46002E01DBA64208D1E0B20EF0F3
S31501003DA0F9FB20B92146384605F0E4FC013501341A
S31501003DB0802CEFD10A2005F0B9FCB5FA85F040094F
S31501003DC0F8BD00BF027B0201187B02012DE9F04E0E
S31501003DD01D46404B174688B0022FD3F83421039372
S31501003DE0029202DC4FF0FF3070E011F0010B05D0BA
S31501003DF0394B93F800A05C689E681AE01022594678
S31501003E0068681AF05DFE102259465FFA80FAA868C2
S31501003E101AF056FE0446A868FFF7EEFE032806468A
S31501003E20E0D8032F05D010225946E8681AF048FE5B
S31501003E300290029F102F0DF1100B3D463246A8BF8E
S31501003E4010255B460095214650460EF021FB814622
S31501003E5018B1224805F07AFC2AE02146204805F0EF
S31501003E6089FCA94507DA1BF8091009F101091D4862
S31501003E7005F080FCF5E71C48002DA8BF641905F084
S31501003E8065FC4FF00009A9450FDA1BF80910A1F1ED
S31501003E9020025E2A03D9154805F058FC02E01448B1
S31501003EA005F068FC09F10109EDE70A2005F03EFC81
S31501003EB07F1B002FBEDC084B002083F800A05C604E
S31501003EC09E60039B1A46029BC2F8343108B0BDE8D6
S31501003ED0F08E00BF601C030174490301E97A0201F7
S31501003EE01E7B0201247B02012DF70201D00703018B
S31501003EF0F6600201032A2DE9F0461C4685B002DC74
S31501003F004FF0FF3043E05868102200211AF0D8FD27
S31501003F10102200215FFA80F9A0681AF0D1FD05464A
S31501003F20A068FFF769FE03280746E9D81022002199
S31501003F30E06800241AF0C4FD6A1E2946A246064618
S31501003F40024414482E4405F015FC731B002B13DDA7
S31501003F5001233A46009329460DF10F0348460EF018
S31501003F6097FA00B10134504601220DF10F010135D6
S31501003F7018F056FF8246E8E724B1074805F0E6FB4C
S31501003F80002004E05146054805F0F4FB204605B043
S31501003F90BDE8F0862A7B02016D7B0201E260020127
S31501003FA0052A2DE9F74681461D4618D15868102283
S31501003FB000211AF085FD102200218246A8681AF018
S31501003FC07FFD102200210646E8681AF079FD0446B5
S31501003FD0E868FFF711FE0328074605D9484603B0EE
S31501003FE0BDE8F04605F06EB8002128691022AAEB5B
S31501003FF004051AF065FDF6B2214604EB00094945B0
S3150100400005EB010313D001243A460094304601F131
S31501004010010A0EF07FFA20B1074805F097FB20460A
S3150100402006E042F6F8201AF05BF95146E7E7002070
S3150100403003B0BDE8F08600BF497B0201022A2DE9E3
S31501004040F046164687B01C4636DD58681022002118
S315010040501AF036FD102200210746A0681AF030FD3D
S315010040608146A068FFF7C8FD0328054624D810221B
S315010040700021E0681AF024FD102828BF1020032E25
S31501004080824606D020690A2200211AF019FD04464B
S3150100409001E04FF47A740B4ECDF800A002AB2A462C
S315010040A04946F8B20EF0F4F910B1304605F04EFB70
S315010040B020461AF015F9EFE74FF0FF3007B0BDE8DB
S315010040C0F08600BFE97A0201032A2DE9FF4E8246F6
S315010040D01E4602D04FF0FF3078E011F0010506D000
S315010040E03C4B012493F80C901D695F6917E0186831
S315010040F0012105F01FFA29461022044670681AF0BC
S31501004100DFFC294610225FFA80F9B0681AF0D8FC64
S315010041100546B068FFF770FD03280746DAD8DFF8D1
S31501004120D4B029462C4805F025FB009402AB3A464B
S31501004130294648460EF0ACF918B1284805F006FBA9
S315010041400EE00299012C09BA029102D1090E244806
S3150100415004E0022C06BF090C2248584605F00AFB6A
S31501004160214809F0A9FF20B9BAF1000F25D025444D
S3150100417023E0102203A91D481AF0A2FC012C01D14B
S31501004180000602E0022C08BF00040290029B039E77
S315010041901BBA0293154BF61A12D0009402AB3A469B
S315010041A0294648460EF0B6F910B1114805F0CEFA87
S315010041B0BAF1000F02D0254400E02646002EB0D108
S315010041C0044B002083F80C901D615F6104B0BDE8CB
S315010041D0F08E00BF74490301657B02016C7B02010D
S315010041E0867B02018D7B02019B7B0201EC6603014A
S315010041F0D07A0201947B0201002065E7012063E782
S3150100420070470148704700BFA0860100024BC01AE3
S3150100421018BF4FF0FF307047A0860100012A10B584
S3150100422007D10EF001F9002401460C4805F0A2FA67
S3150100423012E00A22586800211AF042FC044601469F
S31501004240074805F097FA20460EF0DAF8044618B149
S315010042500146044805F08EFA204610BD9F7B0201F7
S31501004260B57B0201D17B020110B50C460278002113
S315010042702A2A4FF010020ED101301AF021FC022C2D
S3150100428005D0042C05D0012C08D1007810BD00887A
S3150100429010BD006810BD1AF013FC00E000200123D8
S315010042A0E40003FA04F4013C204010BD2DE9F34E6D
S315010042B083460D4616461F4619F09AFE4FF0000931
S315010042C08246424BB9F1680F4B44009375D03F4B80
S315010042D05246584659F803301946019319F06BFEB8
S315010042E0019B0446002865D1184619F081FE8245D6
S315010042F060D1009BD3F804907FBB2B782A2B05D184
S31501004300681C102221461AF0DBFB054633782A2B5E
S3150100431006D100211022701C1AF0D2FB014600E0E2
S315010043203146284619F03CFEB9F1050F4AD8DFE8B7
S3150100433009F003070B0D0F11B0FA80F4640941E08F
S31501004340041C18BF01243DE0C40F3BE0002823E014
S31501004350002826E0C443E40F34E039462846FFF737
S3150100436083FF394605463046FFF77EFFB9F1050F53
S3150100437028D8DFE809F003070B10151A2B1A5C423F
S315010043805C411FE02C1A18BF01241BE08542ACBF1B
S315010043900024012416E08542D4BF0024012411E043
S315010043A08542CCBF002401240CE08542B4BF002421
S315010043B0012407E009F1080983E75946044805F095
S315010043C0D9F90024204602B0BDE8F08E9C340201E2
S315010043D0247C0201042A10B51C461CD1114618681A
S315010043E005F0A8F8821C0346062A0CD8DFE802F07D
S315010043F0040B0B05050B05000023E2686168A06844
S31501004400FFF754FF03E0054805F0A0F90020B0FAD4
S3150100441080F0400910BD4FF0FF3010BD3B7C02011A
S31501004420024B00221A609A685A6070478C49030150
S31501004430034B1A69DA601A685A615A689A617047B9
S315010044408C490301034BDA681A615A691A609A6941
S315010044505A6070478C49030108B505F05AF918B13D
S31501004460BDE8084005F048B94FF0FF3008BD70B50A
S31501004470ADF5866D064601A86946022302930CF046
S31501004480F3F980B9054604466A464FF480610CA8E3
S315010044900CF0A8FA021E0EDDA8190CA91444154445
S315010044A019F06EFEF0E7009800240CF0CFFB0146F0
S315010044B00F4805F05FF968460CF074FB0D490020C2
S315010044C00CF090FB21463046FCF77BF8224621464C
S315010044D0094805F04FF92246084904A81AF0C3FB1A
S315010044E004A9074803F0FAF930460DF5866D70BD4B
S315010044F0F6AC020159440001D57C0201FD7C0201A2
S3150100450057690201034B1A681AB95A68511C596056
S31501004510107070478C490301064A002012F8013BCE
S315010045200BB11844FAE7C0F38113184400F03F00B9
S31501004530704700BFA949030138B5094B5D6B1C469D
S31501004540002D05DD94F83800013D05F0EFF8F7E799
S31501004550044C14F8010F10B105F0E8F8F9E738BD7D
S315010045608C490301A74903012DE9F04E0027DFF825
S3150100457038A1ADF5507D3E464FF0FF3502900DF561
S315010045809C7BCFACD94605F0B7F8DAF80010C2B279
S3150100459021B11046039205F0C9F8039A032A74D093
S315010045A002DC002A71D009E00A2A01D00D2A05D1C0
S315010045B00022ABEB09048BF8002013E00BF8012B6A
S315010045C0D8F858205168344A914206D15C45DAD16F
S315010045D000232370A4EB090404E005F0F2F8002897
S315010045E0F4D052E0002C50DB0EAB05AA04A94846D4
S315010045F00AF033F9002848DB0138082835D8DFE806
S3150100460000F005050534343418181800029B0EA96C
S31501004610059C049A1C44204619F0B2FD049BA54250
S3150100462003F1FF3328BF25461C44A64238BF264660
S315010046301BE0741C42F21070641B19F051FE3246E5
S31501004640294623460094154805F094F82146284644
S31501004650FBF7B7FF2246124906A81AF004FB06A982
S31501004660104803F03BF9059811E00F4B1B68002B2E
S3150100467085D10137642138461EF06CFE00297FF48E
S315010046807EAF2E2005F052F879E74FF0FF300DF599
S31501004690507DBDE8F08E00BFF9960001007D020154
S315010046A053690201576902016C20030138B51546A9
S315010046B01C481C4603F052FA1B4920B10378312BE2
S315010046C001D1012300E00023022D0B6006D16068B1
S315010046D0102200211AF04DFA044600E00024134886
S315010046E005F048F82046FFF73FFF6424054605F02C
S315010046F010F808B105F000F84FF47A7019F0F0FDE2
S31501004700013CF4D16B1C04D1094805F033F80120B2
S3150100471038BD2946074805F02DF8074B20461D6090
S3150100472038BD00BF657D02016C200301707D020169
S31501004730947D0201B27D0201CC2D03012DE9F04EDB
S315010047408CB0C34815461C4603F008FA28B110225E
S3150100475000211AF0B5F9064601E04FF40046D8F8F3
S315010047600830012D009326DD1022002160681AF021
S31501004770A7F9032D06461ED10A220021A0681AF0C8
S315010047809FF90746B8B1009B834215D00146B1484F
S3150100479004F0F0FF4CF2503019F0A2FDC8F8087091
S315010047A011F0CBF94CF2503019F09AFD04F0A4FF48
S315010047B00D28FBD100E0009FA749206819F0F0FB06
S315010047C03A463146044630B9A44804F0D3FF304690
S315010047D0FFF74DFE15E2A248002404F0CBFFA149E4
S315010047E0A14B4FF0FF3A8E60CB63A04B4C6381F82F
S315010047F038400B640D230C6181F84430232381F882
S315010048004530FFF70DFEFFF713FE8B46984ACBF8AE
S315010048104820029204F070FF012803D00328F9D141
S315010048200025C2E104F068FF10F0E00F814600F0B8
S31501004830A88004F061FF10F0E00F00F0A280C5B27D
S31501004840A5F1200301939DF80440544502D1FFF7D9
S31501004850F9FD01E0FFF7ECFD04F04EFF10F0E00F6B
S3150100486000F08E805FFA89F95FFA80FA4D44A9F16A
S31501004870200955445FFA89F2A2F10209002A46D1BC
S3150100488004F03AFF10F0E00F7AD0C0B205EB000950
S315010048902038C5B204F030FF10F0E00FC1B26FD07E
S315010048A009EB01024FF05F0909FB05F92039039273
S315010048B059FA81F904F020FF10F0E00FC5B25FD07C
S315010048C0039AC2F38111114401F03F0120318D4257
S315010048D056D115441BE004F00FFF024612F0E00F1B
S315010048E0C0B24DD0BAF1440F054409F1FF3925D1C3
S315010048F0DBF81020B2B100F06001DBF8402040295E
S3150100490009D100F0BF0090470022CBF81020B9F181
S31501004910010FE0DC21E000F07F013F2908BF40F0F4
S315010049204000F0E79BF84520824203D10123CBF8F2
S315010049301030ECE7DBF840209047E8E7BAF1530F77
S31501004940E5D1DBF848204B4B511CCBF84810994276
S31501004950107028BFCBF84820D9E704F0CDFE10F03F
S31501004960E00F0DD0C5F38112C0B2154405F03F0525
S315010049702035A84204D104F0BFFEC0B20D2824D0D0
S31501004980A246FFF75FFD002101228BF820108BF86C
S315010049901C2023228BF81D2004F120028BF81E20F7
S315010049A04E228BF81F20FFF7B7FD9BF844208BF8AA
S315010049B0212020308BF822108BF82000FFF7BCFD58
S315010049C022465446A246144620E7019DBAF1530FEA
S315010049D005F1200540F0C68000222749CBF8342096
S315010049E08BF8382023228BF84520DBF84820029BE0
S315010049F08A428BF8440004BF02F1FF32CBF848200B
S31501004A00DBF84820D21A002A79DD012A4FF07E010F
S31501004A108BF8201075D0022A4FF021018BF8211056
S31501004A2071D09BF84E10032AA1F12001C9B2CBF82F
S31501004A3034104FF020018BF8221066D09BF84F10EE
S31501004A4001F06000402819D101F0BF011CE000BF50
S31501004A500A5F0201D07D0201027E0201087E020187
S31501004A60477E02018C4903012144000105450001ED
S31501004A70D8490301EC490301EB49030101F07F0029
S31501004A803F2808BF41F04001042A8BF838104FF047
S31501004A9040018BF823103AD09BF85010052AA1F15A
S31501004AA020018BF844104FF02D018BF8241030D0E3
S31501004AB09BF85110062A8BF845104FF023018BF80D
S31501004AC0251028D0072A4FF04E018BF8261024D046
S31501004AD0082A4FF031008BF8270020D0092A8BF8DD
S31501004AE028101ED0222210218BF8292020228BF893
S31501004AF02A207E228BF82B208BF82C2012E0032112
S31501004B0010E004210EE005210CE006210AE0072150
S31501004B1008E0082106E0092104E00A2102E00B2150
S31501004B2000E00C218BF81E504D1C5D4401224FF014
S31501004B3000098BF81C2001F120028BF81D20592257
S31501004B408BF81F2085F81C90FFF7E6FC9BF84420A4
S31501004B505944203028778A7781F81F90FFF7ECFCBB
S31501004B6022462FE7002101228BF820108BF81C200A
S31501004B7023228BF81E508BF81D2059228BF81F20FB
S31501004B80FFF7CAFC9BF844208BF8212020308BF8D4
S31501004B9022108BF82000FFF7CFFCBAF1420FDFD1CC
S31501004BA0DBF80450DBF80830ED1A642404F0B1FD9B
S31501004BB008B104F0A1FD4FF47A7019F091FB013CA4
S31501004BC0F4D129463046FBF7FCFC2A4629461B4808
S31501004BD004F0D0FD2A461A4904A81AF044F804A99B
S31501004BE0184802F07BFE731C174D05D117482C603F
S31501004BF004F0C0FD012404E03146154804F0BAFD75
S31501004C002E60009BBB4214D01946124804F0B2FD37
S31501004C104CF2503019F064FB009AC8F8082010F0E5
S31501004C208CFF4CF2503019F05BFB04F065FD1B283C
S31501004C30FBD120460CB0BDE8F08E00BFD57C020149
S31501004C40FD7C020157690201CC2D0301867E02011A
S31501004C50B27D0201AB7E020173B50E46144601A96F
S31501004C600022054619F085FF019B9D4202463060F0
S31501004C7002D14FF0FF3013E019782D290AD1581CC3
S31501004C8001905B7833B10022114619F072FF206062
S31501004C90002005E0019B1B78002BEAD11846226013
S31501004CA002B070BD012A2DE9F04E8A4698B017462A
S31501004CB01E4602F1FF3440F315815B68DFF840922E
S31501004CC01B78CB460393D9F800300A93D9F8043000
S31501004CD00B93D9F808300E93D9F80C300F93D9F805
S31501004CE010300C93D9F814300D93B9F81830049399
S31501004CF009F01AFC1AF0010F1CBF99F81C30039336
S31501004D000546039B722B0FD0772B3CD1012C64DD1A
S31501004D101022002156F82400023F19F0D1FE012F7E
S31501004D2083B2049303DC58E0012C56DD27467C1E32
S31501004D3056F827702E21384619F062F98246B0B12D
S31501004D40A0EB0709394610A84A4619F0F9F818AB3D
S31501004D5099440FAA0EA910A8002309F8203CFFF7D1
S31501004D607BFF002840F0BE800AF1010703E04FF007
S31501004D70FF330F930E930DAA0CA93846FFF76CFF6C
S31501004D80002840F0AF80012C21DDA31E013C012B40
S31501004D9000F2A880022CB06809D109F0B1FA0546E3
S31501004DA0002800F09F800BAA0AA9F0680AE009F022
S31501004DB0C1FB20B1436B05680B930A9307E0B0680A
S31501004DC00BAA0AA9FFF748FF002840F08B80039B36
S31501004DD06C2B02D109F042FB82E005F10806304650
S31501004DE009F076FB039B0A9C722B0B9B05930E9B8A
S31501004DF006930F9B079322D0039B772B57D10C9BCE
S31501004E00DDF834A00893059BA34250DB069E079B61
S31501004E10B34212DBDDF82090CA450CDB049B324617
S31501004E202146284600934B462F6BB84700283ED1B2
S31501004E3009F10109F0E70136E9E70134E3E70C9BE3
S31501004E4031462B4808930D9B099304F093FC059B6F
S31501004E50A3422CDB2146274804F08CFCDFF8A4A0F2
S31501004E60069F079BBB4220DBDDF82090099B4B4543
S31501004E7019DBEE6A4B463A4621462846B047061EDE
S31501004E8003DA1D4804F076FC11E0002F03DB3946F6
S31501004E901A4804F06FFC4946B2B2504609F10109BD
S31501004EA004F068FCE2E70137DBE70134CFE79DF860
S31501004EB00C308BF81C300A9BCBF800300B9BCBF8DF
S31501004EC004300E9BCBF808300F9BCBF80C300C9BB3
S31501004ED0CBF810300D9BCBF81430049BCBF818306F
S31501004EE0002001E04FF0FF3018B0BDE8F08E00BFA2
S31501004EF0088002011D800201D6F4020131800201FF
S31501004F00EC49030135800201022A2DE9F746924652
S31501004F101D4602DC4FF0FF304BE02749586819F077
S31501004F203FF820B104350AF1FF3A002406E0AAF160
S31501004F30020A0835BAF1020FECDD01241022002124
S31501004F40286819F0BDFD1D4B102200211E6806447C
S31501004F50686819F0B5FD4FF480633146024607468D
S31501004F60002017F063FF81469CB97A1E034632443E
S31501004F703146134804F0FEFBBAF1020F01D10020BD
S31501004F8017E010222146A86819F09AFDC0F8009092
S31501004F90F5E710220021A86819F092FD8145EED0AF
S31501004FA07A1E00904B4632443146064804F0E2FB35
S31501004FB0012003B0BDE8F0868A8102010C4A030193
S31501004FC08D810201B2810201012A10B5064C05DD6F
S31501004FD010220021586819F073FD206021680348EA
S31501004FE004F0C8FB002010BD0C4A0301EC8102014C
S31501004FF02DE9F0421D46D31E9146012B2ED80421E0
S31501005000286804F097FA061E2CDD10220021686834
S3150100501019F056FD154B102200211C680444A8689E
S3150100502019F04EFDB9F1040F074605D110220021F2
S31501005030E86819F045FD05E0012003E0042E05D1DD
S315010050402760344410F1FF30F8D204E0022E0CBF81
S3150100505027802770F5E70020BDE8F0824FF0FF308A
S31501005060BDE8F0820120BDE8F08200BF0C4A0301D1
S31501005070022A70B51E4637DD0421186804F05AFA73
S31501005080051E34DB10220021706819F019FD10226B
S3150100509000210446B06819F013FD012809D1042D39
S315010050A001D12368FDE7022D01D12388FDE723788D
S315010050B0FDE7042D07D12246034613F1FF33FAD348
S315010050C011680432F9E7022D07D12246034613F18E
S315010050D0FF33FAD311880232F9E72044234683428B
S315010050E0FCD01A780133FAE74FF0FF3070BD01208A
S315010050F070BD2DE9F34E012A204F92469B46D7F803
S31501005100009033DD11F0010603D01D4B5C689D68EC
S3150100511018E00421186804F00DFA051E29DB102297
S315010051203146DBF8040019F0CBFC154BBAF1020F3E
S315010051301C68044406D010223146DBF8080019F039
S31501005140BFFC8146294610201DF0BAFF21464B4679
S315010051502A460090204605FB094417F00BFF084B31
S31501005160C7F8009000209D605C6003E04FF0FF30BF
S3150100517000E0012002B0BDE8F08E00BF70200301FF
S315010051800C4A0301042AF8B51D4637D111461868A1
S3150100519004F0D0F9071E34DB10220021686819F0EB
S315010051A08FFC194C1022002126680644A86819F0C4
S315010051B087FC2468102200210444E86819F080FC69
S315010051C010B1451E361B0DE0104804F0BFFA18E079
S315010051D0042F0AD133592360ABB23C440BB913F007
S315010051E0E7FD013D6B1CF3D106E0022F0BBF335BDC
S315010051F0335D23802370EFE70020F8BD4FF0FF30C9
S31501005200F8BD0120F8BD00BF0C4A0301038202016B
S31501005210042A2DE9F046994687B058D111461868F7
S3150100522004F088F9051E55DB042D05D02B4B2C4EB9
S31501005230022D18BF1E4600E02A4E10220021D9F881
S31501005240040019F03DFC284C102200212768074470
S31501005250D9F8080019F034FC24681022002104440E
S31501005260D9F80C0019F02CFC3F1B4FF000098246BF
S31501005270D14504EB070222D0042D02D1136821681F
S3150100528005E0022D07BF138821883B5D21788B42FB
S315010052900CD0049131460294CA468DE848002B464B
S315010052A003950124114804F065FA09E01FFA89F310
S315010052B02C440BB913F07CFD09F10109D8E7002450
S315010052C0324651460A4804F055FA204603E04FF0AB
S315010052D0FF3000E0012007B0BDE8F086148202012C
S315010052E0198202011D8202010C4A03012282020176
S315010052F054820201012A2DE9F34E16461D466EDD42
S3150100530010220021586819F0DBFB022E009068D0AC
S3150100531010220021A86819F0D3FB032E019063D057
S3150100532010220021E86819F0CBFB042E044606D0B2
S3150100533010220021286919F0C3FB814601E04FF0D4
S31501005340000901260025B24604F03BFA20B10A20E5
S3150100535004F0ECF901204AE0B9F1000F0BD0CA457F
S3150100536009DD2A460AF1FF31224804F003FA281C16
S3150100537018BF01203BE0204A21462048A34604F0FD
S31501005380F9F9009F019B9F4205D213F011FD47F8E1
S3150100539004BBB344F6E71A48A34604F0D7F9009FC5
S315010053A0019B9F4211D213F003FD3A68934509D040
S315010053B05B4639461348013504F0DCF904F001FA7D
S315010053C00028C4D1B3440437EAE7002C0AF1010AE4
S315010053D0B8BF6442C6F10006A8BFE443B4E70023A0
S315010053E000934FF0007301930024A146A9E702B090
S315010053F0BDE8F08E76820201C78202019F82020118
S31501005400C8820201D3820201022A2DE9F746064625
S315010054101F464ED111F0010403D02E4BDC681D69E5
S315010054200DE00421186804F085F8051E44DB2146C9
S315010054301022786819F044FB264B1C680444264F59
S31501005440DFF8A8902146384604F094F9042D02D1DC
S315010054502168224805E0022D0BBF218848462048D5
S31501005460217804F087F91F4808F026FE50B3012879
S31501005470DFF874A003D19AF800302D2B1ED010222C
S3150100548001A9194819F01CFB019BB3EB0A030BD0C8
S31501005490042D01D1206003E0022D0CBF2080207075
S315010054A006B12C44002BCDD10A4B0020DC601D61D6
S315010054B00DE04FF0FF300AE0012008E0002EC1D0D8
S315010054C06B4202E0002EBDD02B461C44BAE703B066
S315010054D0BDE8F0860C4A0301657B020105830201E2
S315010054E00B8302019B7B0201EC660301247B020113
S315010054F0012089E7002087E737B50D46144601A943
S31501005500102219F0DDFAC3B201982B7002782D2A08
S3150100551007D1013010220021019019F0D1FA207033
S3150100552000E0237003B030BD012A2DE9F04E164686
S3150100553098B01D4602DC4FF0FF304AE2A34B11F052
S3150100554001041A788DF850205A788DF851205A683E
